:100000000C94C30D0C94EE0D0C94EE0D0C94EE0DAF
:100010000C94EE0D0C94EE0D0C94EE0D0C94EE0D74
:100020000C94EE0D0C94EE0D0C94B7E00C9431DFB3
:100030000C94EE0D0C94EE0D0C94EE0D0C94EE0D54
:100040000C94EE0D0C94218B0C94EE0D0C94EE0D93
:100050000C94EE0D0C94EE0D0C94ED930C94FADDD3
:100060000C94EE0D0C94EE0D0C94EE0D0C94EE0D24
:100070000C94EE0D0C94EE0D0C94EE0D0C94EE0D14
:100080000C94EE0D0C94EE0D0C94EE0D0C94EE0D04
:100090000C942BD80C94EE0D084AD73B3BCE016E46
:1000A00084BCBFFDC12F3D6C74319ABD56833DDACF
:1000B0003D00C77F11BED9E4BB4C3E916BAAAABEDE
:1000C000000000803F05A84CCDB2D44EB93836A907
:1000D000020C50B9918688083CA6AAAA2ABE000044
:1000E00000803F4D383420582059205A2045006563
:1000F00063686F3A0043616E6E6F7420656E74655D
:1001000072207375626469723A20004D3234004D7A
:100110003233202573006175746F25692E670045A1
:1001200072726F723A006572726F722077726974C0
:10013000696E6720746F2066696C65004E6F74206D
:100140005344207072696E74696E67002F005344C7
:10015000207072696E74696E672062797465200020
:100160002E0044656C6574696F6E206661696C650C
:10017000642C2046696C653A200046696C652064F1
:10018000656C657465643A002E006F70656E20665C
:1001900061696C65642C2046696C653A2000577271
:1001A0006974696E6720746F2066696C653A200017
:1001B0002E006F70656E206661696C65642C204648
:1001C000696C653A20002E006F70656E206661696B
:1001D0006C65642C2046696C653A200046696C6544
:1001E0002073656C6563746564002053697A653AB1
:1001F000200046696C65206F70656E65643A20006A
:100200002E006F70656E206661696C65642C2046F7
:10021000696C653A20004E6F7720667265736820BE
:1002200066696C653A20004E6F7720646F696E676F
:100230002066696C653A20002220706F73002220CE
:10024000706172656E743A2200535542524F555494
:10025000494E452043414C4C207461726765743AA5
:100260002200747279696E6720746F2063616C6C10
:10027000207375622D67636F64652066696C6573B2
:10028000207769746820746F6F206D616E79206CBF
:100290006576656C732E204D4158206C6576656CD3
:1002A0002069733A0053442063617264206F6B00CD
:1002B0006F70656E526F6F74206661696C65640063
:1002C000766F6C756D652E696E6974206661696CF8
:1002D000656400534420696E6974206661696C002E
:1002E0006563686F3A0048617264636F6465642097
:1002F00044656661756C742053657474696E6773C8
:10030000204C6F616465640053746F726564207380
:10031000657474696E677320726574726965766559
:100320006400205A0020590020204D3231322058DC
:10033000004265642070726F6265206F6666736547
:100340007420286D6D293A00205A00205900202081
:100350004D3231312058004D617820706F736974CF
:10036000696F6E20286D6D293A00205A00205900CF
:1003700020204D3231302058004D696E20706F734F
:100380006974696F6E20286D6D293A002044002041
:1003900049002020204D3330312050005049442066
:1003A00073657474696E67733A00205A00205900AF
:1003B00020204D323036205800486F6D65206F6622
:1003C0006673657420286D6D293A00204500205A17
:1003D0000020580020420020540020204D323035AB
:1003E000205300416476616E6365642076617269B2
:1003F00061626C65733A20533D4D696E2066656598
:10040000647261746520286D6D2F73292C20543D12
:100410004D696E2074726176656C206665656472E4
:1004200061746520286D6D2F73292C20423D6D6904
:100430006E696D756D207365676D656E7420746986
:100440006D6520286D73292C20583D6D6178696D8C
:10045000756D205859206A65726B20286D6D2F7359
:10046000292C20205A3D6D6178696D756D205A20C8
:100470006A65726B20286D6D2F73292C2020453DF5
:100480006D6178696D756D2045206A65726B2028F5
:100490006D6D2F73290020540020204D3230342000
:1004A0005300416363656C65726174696F6E3A20D5
:1004B000533D616363656C65726174696F6E2C2076
:1004C000543D7265747261637420616363656C6529
:1004D000726174696F6E00204500205A0020590037
:1004E00020204D3230312058004D6178696D756D96
:1004F00020416363656C65726174696F6E20286D5D
:100500006D2F7332293A00204500205A00205900EF
:1005100020204D3230332058004D6178696D756D63
:100520002066656564726174657320286D6D2F7334
:10053000293A00204500205A0020590020204D393A
:100540003220580053746570732070657220756E88
:1005500069743A0053657474696E67732053746FDD
:10056000726564006563686F3A004572726F723A33
:100570000053544F505045442E20005072696E7401
:1005800065722073746F7070656420647565207483
:100590006F206572726F72732E20466978207468BE
:1005A00065206572726F7220616E642075736520BC
:1005B0004D39393920746F20726573746172742EED
:1005C000202854656D706572617475726520697359
:1005D0002072657365742E205365742069742061E0
:1005E000667465722072657374617274696E6729CE
:1005F000004B494C4C45442E20005072696E746586
:10060000722068616C7465642E206B696C6C28299B
:100610002063616C6C656421006F6B0052657365CB
:100620006E643A20002200556E6B6E6F776E206309
:100630006F6D6D616E643A2022004368616E67657C
:100640002066696C616D656E7400486F74656E64D8
:10065000206F6666736574733A007A5F6D696E3AEF
:100660002000795F6D61783A2000785F6D696E3A9D
:1006700020005A3A00593A0020436F756E74205892
:100680003A2000453A005A3A00593A00583A004692
:1006900049524D574152455F4E414D453A4D617269
:1006A0006C696E2056313B20537072696E746572AE
:1006B0002F6772626C206D617368757020666F724F
:1006C0002067656E36204649524D574152455F5569
:1006D000524C3A687474703A2F2F7072696E74724B
:1006E000626F742E636F6D2050524F544F434F4CC6
:1006F0005F56455253494F4E3A312E30204D4143BB
:1007000048494E455F545950453A5072696E74726B
:10071000626F742045585452554445525F434F55BB
:100720004E543A3320555549443A30303030303009
:1007300030302D303030302D303030302D303030C2
:10074000302D3030303030303030303030300A0002
:100750005072696E7472626F74204F66662E00422A
:10076000656420646F6E652E0020423A0020453A91
:1007700000543A004265642048656174696E672ED2
:100780000048656174696E6720646F6E652E002095
:10079000573A0020453A00543A0048656174696E42
:1007A000672E2E2E002042403A0020403A00202F93
:1007B000003A00205400202F0020423A00202F0051
:1007C0006F6B20543A002569206D696E2C202569D5
:1007D0002073656300456E642066696C65206C69F2
:1007E000737400426567696E2066696C65206C6988
:1007F0007374004E6F206D6F76652E0052657375B1
:100800006D696E67207072696E740057616974203B
:10081000666F7220757365722E2E2E000A00205AA4
:100820003A200020593A200042656420506F7369D5
:1008300074696F6E20583A20000A00207A3A20002E
:1008400020793A200042656420783A20000A00208E
:100850007A3A200020793A200042656420783A20D4
:10086000000A00207A3A200020793A20004265648C
:1008700020783A20005A50726F6265204F75747369
:1008800069646520426564005A50726F6265204F4A
:100890007574736964652042656400486F6D6520F6
:1008A000582F59206265666F7265205A00486F6D37
:1008B0006520582F59206265666F7265205A005373
:1008C0006C6565702E2E2E00FF01FF0000A0400019
:1008D00000A0400000803F256920686F757273207A
:1008E0002569206D696E7574657300446F6E6520AF
:1008F0007072696E74696E672066696C6500535426
:100900004F505045442E20005072696E746572201D
:1009100073746F707065642064756520746F2065F2
:1009200072726F72732E2046697820746865206534
:1009300072726F7220616E6420757365204D393953
:100940003920746F20726573746172742E2028547C
:10095000656D70657261747572652069732072656A
:100960007365742E20536574206974206166746504
:10097000722072657374617274696E6729006F6B9F
:10098000004E6F204C696E65204E756D6265722059
:100990007769746820636865636B73756D2C204C90
:1009A000617374204C696E653A20004E6F20436875
:1009B00065636B73756D2077697468206C696E650B
:1009C000206E756D6265722C204C617374204C69C9
:1009D0006E653A2000636865636B73756D206D69A1
:1009E000736D617463682C204C617374204C696E64
:1009F000653A20004C696E65204E756D6265722007
:100A00006973206E6F74204C617374204C696E653D
:100A1000204E756D6265722B312C204C61737420F1
:100A20004C696E653A20004D31313000446F6E657F
:100A300020736176696E672066696C652E006F6B46
:100A4000004D3239002020506C616E6E6572427527
:100A50006666657242797465733A20002046726555
:100A600065204D656D6F72793A20004175672032BF
:100A700030203230313400436F6D70696C65643AF8
:100A80002000286C77616C6B6572612C2050726954
:100A90006E7472626F74206669726D776172652917
:100AA00000207C20417574686F723A2000417567A0
:100AB00020323020323031342031323A32353A313E
:100AC0003200204C61737420557064617465643A1F
:100AD0002000312E302E30004D61726C696E200086
:100AE00020536F6674776172652052657365740078
:100AF000205761746368646F672052657365740082
:100B00002042726F776E206F757420526573657422
:100B1000002045787465726E616C2052657365744F
:100B200000506F77657255700073746172740022A3
:100B300000656E717565696E672022002200656E22
:100B4000717565696E672022006563686F3A0020E1
:100B5000746F6F206C6F6E6720657874727573693F
:100B60006F6E2070726576656E7465640020636FC9
:100B70006C6420657874727573696F6E207072652D
:100B800076656E746564007C3C3E5E2B3D3F2F5B5A
:100B90005D3B2C2A225C0045313A200045303A204A
:100BA000005A3A2000593A2000583A20004D53315B
:100BB0002C4D53322050696E730A006563686F3A9A
:100BC0000028002920453A00280029205A3A002808
:100BD000002920593A00280020583A0053746570C3
:100BE0007065722063757272656E742076616C75C3
:100BF0006573205B2528726177295D3A0024F4042F
:100C0000D9201BC40C5C0E9804C4095F02650771EF
:100C100001F405F900FB04B30048048700C103692F
:100C2000005803550003034500BE023A0084023118
:100C30000053022A002902250004022000E4011CBE
:100C400000C8011900AF01170098011400840113B6
:100C500000710110006101100051010E0043010DEF
:100C60000036010B002B010B0020010B00150109C0
:100C7000000C01090003010800FB000800F3000854
:100C800000EB000700E4000600DE000600D80006C6
:100C900000D2000600CC000500C7000500C2000518
:100CA00000BD000400B9000400B5000400B1000458
:100CB00000AD000400A9000400A5000300A2000389
:100CC000009F0004009B00030098000300950002B1
:100CD0000093000300900003008D0002008B0003CE
:100CE00000880002008600020084000300810002E8
:100CF000007F0002007D0002007B000200790002FC
:100D0000007700010076000200740002007200010A
:100D100000710002006F0002006D0001006C000213
:100D2000006A00010069000200670001006600011E
:100D30000065000100640002006200010061000122
:100D400000600001005F0002005D0001005C000126
:100D5000005B0001005A0001005900010058000129
:100D60000057000100560001005500010054000129
:100D70000053000000530001005200010051000127
:100D800000500001004F0001004E0000004E000125
:100D9000004D0001004C0001004B0000004B000121
:100DA000004A00010049000100480000004800011D
:100DB0000047000100460000004600010045000019
:100DC0000045000100440001004300000043000111
:100DD000004200000042000100410000004100010B
:100DE00000400001003F0000003F0001003E000005
:100DF000003E0001003D0000003D0001003C0000FD
:100E0000003C0000003C0001003B0000003B0001F2
:100E1000003A0000003A00010039000000390001EA
:100E200000380000003800000038000100370000E2
:100E300000370001003600000036000000360001D7
:100E400000350000003500000035000100340000CE
:100E500000340000003400010033000000330000C3
:100E600000330001003200000032000000320001B7
:100E700000310000003100000031000100300000AE
:100E80000030000000300001002F0000002F0000A3
:100E9000002F0000002F0001002E0000002E000097
:100EA000002E0001002D0000002D0000002D00008C
:100EB000002D0001002C0000002C0000002C000080
:100EC000002C0001002B0000002B0000002B000074
:100ED000002B0001002A0000002A0000002A000068
:100EE000002A00010029000000290000002900005C
:100EF000002900000029000100280000002800004F
:100F00000028000000280000002800010027000041
:100F10000027000000270000002700000027000134
:100F20000026000000260000002600000026000029
:100F3000002600010025000000250000002500001B
:100F4000002500000025000000250001002400000D
:100F50000024000000240000002400000024000100
:100F600000230000002300000023000000230000F5
:100F700000230000002300000023000100220000E5
:100F800000220000002200000022000000220000D9
:100F900000220001002100000021000000210000CB
:100FA00000210000002100000021000000210001BC
:100FB00000200000002000000020000000200000B1
:100FC00000200000002000000020000000200001A0
:100FD000001F0000001F0000001F0000001F000095
:100FE000001F0000001F0000001F0001001E000085
:100FF000001E0000001E0000001E00000024F4D4AB
:101000003050C38E20C2A24017828B7011127A9189
:101010000D816CD90AA861E108C758660761514380
:10102000061E4B5D05C145A7041A411104093D98F0
:1010300003713931034036DB0265339102D43054F9
:1010400002802E1D02632CEE01752AC501B028A076
:1010500001102781018F2564012B244B01E02234EC
:1010600001AC211F018D200D01801FFC00841EEDAD
:1010700000971DDF00B81CD200E61BC600201BBC79
:1010800000641AB200B219A8000A19A0006A1899DF
:1010900000D117910040178B00B516840031167EE1
:1010A00000B31579003A157300C7146F0058146A1D
:1010B00000EE1366008813630025135E00C7125B01
:1010C000006C12570015125400C111510070114FDD
:1010D0000021114B00D61049008D104700461044E6
:1010E0000002104200C00F4000800F3E00420F3C43
:1010F00000060F3B00CB0E3800930E37005C0E3518
:1011000000270E3400F30D3200C10D3100900D3078
:1011100000600D2E00320D2D00050D2C00D90C2B7A
:1011200000AE0C2900850C29005C0C2700350C272B
:10113000000E0C2600E80B2400C40B2400A00B2397
:10114000007D0B23005A0B2100390B2100180B20C6
:1011500000F80A1F00D90A1E00BB0A1E009D0A1DC6
:1011600000800A1D00630A1C00470A1B002C0A1B92
:1011700000110A1A00F7091A00DD091900C409193B
:1011800000AB091900920917007B091800630917C1
:10119000004C09160036091600200916000A091528
:1011A00000F5081500E0081400CC081400B8081475
:1011B00000A4081400900813007D0812006B0813A7
:1011C00000580812004608120034081100230811C4
:1011D000001208110001081100F0071000E00710CC
:1011E00000D0071000C0071000B0070F00A10710C3
:1011F0000091070E0083070F0074070F0065070EAC
:101200000057070E0049070E003B070D002E070E82
:101210000020070D0013070D0006070D00F9060C4E
:1012200000ED060D00E0060C00D4060C00C8060C0C
:1012300000BC060C00B0060C00A4060B0099060CBE
:10124000008D060B0082060B0077060B006C060B68
:101250000061060A0057060B004C060A0042060A07
:101260000038060A002E060A0024060A001A060A9A
:10127000001006090007060A00FD050900F405092B
:1012800000EB050900E2050900D9050900D00509B0
:1012900000C7050900BE050900B5050800AD050831
:1012A00000A50509009C050800940508008C0508A8
:1012B00000840508007C050800740508006C05071B
:1012C00000650508005D050700560508004E050786
:1012D00000470507004005080038050700310507ED
:1012E000002A050700230507001C05060016050750
:1012F000000F0507000805060002050700FB0406AD
:1013000000F5040700EE040600E8040600E2040706
:1013100000DB040600D5040600CF040600C904065D
:1013200000C3040600BD040600B7040600B10405AE
:1013300000AC040600A6040600A00405009B0406F9
:101340000095040500900406008A04050085040544
:1013500000800406007A0405007504050070040589
:10136000006B04050066040500610405005C0405CB
:101370000057040500520405004D0405004804050B
:1013800000430405003E0404003A0405003504054A
:1013900000300404002C0405002704040023040585
:1013A000001E0404001A04040016040500110404BD
:1013B000000D0404000904050004040400000404F2
:1013C00000FC030400F8030400F4030400F0030429
:1013D00000EC030400E8030400E4030400E0030459
:1013E00000DC030400D8030400D4030400D0030489
:1013F00000CC030400C8030300C5030300656E644A
:1014000073746F7073206869743A205A00205A3AD6
:1014100000656E6473746F7073206869743A205944
:101420000020593A00656E6473746F7073206869A8
:10143000743A20580020583A00656E6473746F70D7
:1014400073206869743A20004572726F723A0045E1
:1014500072723A204D415854454D50204245440047
:1014600054656D706572617475726520686561742C
:1014700065642062656420737769746368656420BD
:101480006F66662E204D415854454D502074726948
:10149000676765726564202121004572723A204DAC
:1014A000494E54454D50003A204578747275646534
:1014B00072207377697463686564206F66662E2096
:1014C0004D494E54454D5020747269676765726589
:1014D000642021004572723A204D415854454D50C8
:1014E000003A204578747275646572207377697468
:1014F00063686564206F66662E204D415854454DE3
:101500005020747269676765726564202100202D20
:1015100020496E76616C69642065787472756465C3
:1015200072206E756D62657220210070012C019031
:10153000012701B0012201C0011D01F001180110B5
:1015400002130130020E016002090190020401C081
:1015500002FF000003FA004003F5008003F000D012
:1015600003EB002004E6007004E100E004DC00402E
:1015700005D700C005D2004006CD00D006C80080C7
:1015800007C3003008BE00F008B900C009B400B0BD
:101590000AAF00B00BAA00D00CA500000EA00050AE
:1015A0000F9B00C01096005012910000148C00C0D8
:1015B000158700B0178200B0197D00D01B7800009D
:1015C0001E730040206E0090226900F024640040E9
:1015D000275F0090295A00E02B5500102E50002064
:1015E000304B0010324600E033410090353C001093
:1015F00037370070383200A0392D00B03A2800A0EB
:101600003B2300603C1E00103D1900903D1400106B
:101610003E0F00703E0A00C03E0500003F00005033
:101620004944204175746F74756E652066696E69F2
:1016300073686564212050757420746865204B7050
:101640002C204B6920616E64204B6420636F6E73A5
:1016500074616E747320696E746F20436F6E666977
:101660006775726174696F6E2E680050494420413D
:1016700075746F74756E65206661696C6564212090
:1016800074696D656F75740020403A006F6B20546B
:101690003A006F6B20423A00504944204175746F04
:1016A00074756E65206661696C6564212054656D92
:1016B000706572617475726520746F6F20686967F8
:1016C0006800204B643A2000204B693A2000204BF0
:1016D000703A200020436C617369632050494420B4
:1016E000002054753A2000204B753A2000206D618F
:1016F000783A2000206D696E3A200020643A20007C
:1017000020626961733A20002D2D3A2D2D002D2D78
:101710002D005344000120000120000120004D3223
:101720003100496E69742E2053442D436172640068
:101730004E6F2043617264004D3231004368616E28
:1017400067652053442D43617264005072696E7462
:101750002066726F6D2053440053746F7020507276
:10176000696E7400526573756D65205072696E7490
:10177000005061757365205072696E7400436F6E1E
:1017800074726F6C00507265706172650054756E92
:101790006500496E666F2073637265656E00052E85
:1017A0002E000452656672657368004D61696E00B3
:1017B0004D3234004D3233202573004D38342058DB
:1017C0002059205A204500526573746F7265204677
:1017D00061696C73616665004C6F6164206D656D55
:1017E0006F72790053746F7265206D656D6F7279D9
:1017F0000054656D7065726174757265004D616944
:101800006E005049442D43005049442D4300504937
:10181000442D44005049442D44005049442D490072
:101820005049442D49005049442D50005049442D01
:10183000500020022046616374002002204661634C
:1018400074002002204D6178002002204D61780054
:101850002002204D696E002002204D696E004F6607
:1018600066004F6E20004F6666004F6E2000417587
:10187000746F74656D700046616E20737065656489
:101880000046616E207370656564004265640042C5
:101890006564004E6F7A7A6C6533004E6F7A7A6CAD
:1018A0006533004E6F7A7A6C6532004E6F7A7A6CCF
:1018B0006532004E6F7A7A6C65004E6F7A7A6C658D
:1018C00000436F6E74726F6C004D6F7665204178C7
:1018D000697300436F6F6C646F776E005072656858
:1018E00065617420414253005072656865617420DF
:1018F000504C4100473238004175746F20486F6D7D
:1019000065004D38340044697361626C652053741E
:10191000657070657273004D61696E004D6F76651C
:1019200020302E316D6D004D6F766520316D6D006C
:101930004D6F76652031306D6D005072657061724B
:1019400065004578747275646572004D6F76652028
:101950005A004D6F76652059004D6F76652058000E
:101960004D6F7665204178697300457874727564AF
:101970006572005A00590058004D363030004368F7
:10198000616E67652066696C616D656E7400466C9A
:101990006F7700466C6F770046616E2073706565E7
:1019A000640046616E207370656564004265640082
:1019B000426564004E6F7A7A6C6533004E6F7A7AB6
:1019C0006C6533004E6F7A7A6C6532004E6F7A7AAE
:1019D0006C6532004E6F7A7A6C65004E6F7A7A6C65
:1019E00065005370656564005370656564004D6102
:1019F000696E00012902290429082910292029409B
:101A0000298029012C022C012602260426082610F2
:101A100026202640268026402C802C0123022304E9
:101A200023082310232023402380230120022004A5
:101A30002008201020202040208020102C202C0165
:101A40002F022F042F082F102F202F402F802F7EA2
:101A5000FE7EFD7EFB7EF77EEF7EDF7EBF7E7F001B
:101A6000010000931A1200020000A51A43000300AF
:101A700000E81A0401030904EC1A14020309040221
:101A80001B1A030309041E1B1E0001C1020180363C
:101A900001813612010002020000207429030500B2
:101AA000010102030109024300020100C0320904DE
:101AB00000000102020100052400100105240100BC
:101AC000010424020605240600010705820308001C
:101AD0004009040100020A0000000705030240005B
:101AE00000070584024000000403090414035000A9
:101AF000720069006E007400720062006F00740072
:101B000000001A03530069006D0070006C0065004E
:101B100020004D0061006B006500720000001E0394
:101B20005000720069006E007400720062006F0065
:101B30007400310032003300340035000000494E9B
:101B400046494E4954594E414ECDCCCC3D0AD7233F
:101B50003C17B7D13877CC2B329595E6241FB14F7F
:101B60000A000020410000C84200401C4620BCBEC4
:101B70004CCA1B0E5AAEC59D7400C32C818990CBF4
:101B8000B3D632E4BE2C11241FBECFEFD0E2DEBFAD
:101B9000CDBF13E0A0E0B1E0E8E2F4ED01E00BBF5F
:101BA00002C007900D92A03FB107D9F71BBE12E10A
:101BB000A0EFB3E001C01D92A436B107E1F71BE12D
:101BC000C4E8DBE104C02297FE010E94BAE9CA37EB
:101BD000D107C9F70E9435E10C9408EA0C94000083
:101BE000A0E0B0E0E6EFFDE00C94D7E9EC015B018A
:101BF0006115710519F0FB0191838083F9908F2D98
:101C000090E00E94BEE9892BC9F7FDE2FF1621F49E
:101C1000F990EE24E39405C02BE2F21609F4F99052
:101C2000EE248E0101501040C8016EE37BE143E0D9
:101C300050E072D2892BF9F48E010E5F1F4FC8015C
:101C400061E47BE145E050E067D2892B19F48E0115
:101C5000095F1F4FA114B10419F0F501118300832E
:101C6000E0FC04C070E090E080E813C070E090E019
:101C700080E86FEF07C1C80166E47BE143E050E014
:101C80004BD2892B69F4A114B10429F470E090E0DF
:101C900080EC6FE7F7C02296F501D183C083F6CFC1
:101CA0008824992440E050E060E070E0EF2DE0539C
:101CB000EA30A0F5F2E0EF2A8E2D90E09C0128702A
:101CC0003070E2FE06C0232B79F50894811C911C2C
:101CD0002BC0232B19F0089481089108DB01CA015D
:101CE00012E0880F991FAA1FBB1F1A95D1F7480F42
:101CF000591F6A1F7B1F440F551F661F771F4E0F0A
:101D0000511D611D711D483929E9520729E96207F2
:101D100029E1720748F084E0E82A06C0EE3F31F47A
:101D2000E3FC39C098E0E92AF990C0CFE53311F01F
:101D3000E53189F529912D3219F4E0E1EE2A05C04B
:101D40002B3219F081E090E003C0299182E090E00D
:101D5000E22FE053EA3018F0C81BD90B1CC020E07A
:101D600030E0FCE020383F075CF4C901880F991F80
:101D7000880F991F280F391F220F331F2E0F311D77
:101D8000E991E053EA3068F3E4FE03C03095219511
:101D90003F4F820E931ECE2CDD24E1FE07C0A1141E
:101DA000B10421F02197F501D183C083CB01BA01A1
:101DB0000E9423E67B018C01F3E0CF22DD2423E0A7
:101DC000C216D10421F417FB109517F9109557018D
:101DD0006801C801B70120E030E040E050E00E9417
:101DE00083E5882309F44AC097FE0DC02DE5E22E55
:101DF0002BE1F22E9094819491089394C0E2D0E06C
:101E000000E010E012C095E7E92E9BE1F92EF6CF35
:101E1000F7012591359145915491C601B5010E9474
:101E200063E85B016C018C1A9D0A8C169D0684F791
:101E3000D595C7950F5F1F4F0630110529F08CEF20
:101E40009FEFE80EF91EF1CFC501D6017C018D018F
:101E50008C2D880F8D2D881F8F3F51F0C601B50145
:101E600020E030E040E050E00E9483E5882331F438
:101E700082E290E090936312809362127E2D9F2DF8
:101E8000802F612F272F392F482F562FB901CA01D4
:101E9000CDB7DEB7ECE00C94F3E92F923F925F925E
:101EA0006F927F928F929F92AF92BF92CF92DF926A
:101EB000EF92FF920F931F93CF93DF938C011B013F
:101EC000EA016115710519F0FB0191838083209768
:101ED00049F0CE010297839728F020E030E040E0FF
:101EE00050E0F6C0F801A1908F018A2D90E00E9489
:101EF000BEE9892BB9F7FDE2AF1631F4F801A190E4
:101F00008F015524539407C0FBE2AF1619F4F80172
:101F1000A1908F015524209719F0C031D105C1F44B
:101F2000F0E3AF1679F4F8018081883711F0883535
:101F300049F4F801A1800E5F1F4FF2E05F2AC0E173
:101F4000D0E006C0209721F480E3A816E9F427C06A
:101F5000C830D10531F1C930D10524F4C230D105E2
:101F600031F50CC0CA30D10589F0C031D105F9F482
:101F7000C12CD12CE12CB8E0FB2E28C0C12CD12CD7
:101F8000E12CA0E4FA2E22C0CAE0D0E0FCECCF2E77
:101F9000FCECDF2EFCECEF2EFCE0FF2E17C0C8E0BF
:101FA000D0E0C12CD12CE12CE0E1FE2E0FC09E012F
:101FB000442737FD4095542F60E070E080E090E8C2
:101FC0000E947BE9C901DA016C017D0120E030E06B
:101FD00040E050E060E03E01882477FC8094982C3B
:101FE00070EDB72EBA0CE9E0EB1570F48A2D815430
:101FF0008A3118F499ECB92E06C08A2D81568A319F
:1020000050F589EAB82EBA0C8B2D90E08C179D07FD
:1020100014F56F3FE1F0C216D306E406F506B0F002
:10202000CA01B901A40193010E9435E99B01AC01E9
:102030002B0D311D411D511D2130F0E03F07F0E017
:102040004F07F0E85F0710F461E001C06FEFF8019F
:10205000A1908F01C5CF2114310481F0662331F0A6
:1020600001501040F1011183008308C051FE1AC0D5
:1020700002501040F1011183008314C067FF12C0A9
:1020800050FC05C02FEF3FEF4FEF5FE704C020E0AB
:1020900030E040E050E882E290E090936312809359
:1020A000621216C050FE08C050954095309521959B
:1020B0003F4F4F4F5F4F0CC057FF0AC082E290E086
:1020C00090936312809362122FEF3FEF4FEF5FE721
:1020D000B901CA01DF91CF911F910F91FF90EF904D
:1020E000DF90CF90BF90AF909F908F907F906F9038
:1020F0005F903F902F900895FB01DC0105900D92B9
:102100000020E1F70895FC0105900020E9F7809593
:1021100090958E0F9F1F0895FB01DC0141505040A8
:1021200088F08D9181341CF08B350CF4805E6591C4
:1021300061341CF06B350CF4605E861B611171F329
:10214000990B0895881BFCCFFB01DC0141505040E6
:1021500048F005900D920020C9F701C01D92415032
:102160005040E0F70895FB0155915523A9F0BF01B8
:10217000DC014D9145174111E1F759F4CD0105906E
:10218000002049F04D9140154111C9F3FB01411167
:10219000EFCF81E090E001970895FB01DC0104C0DE
:1021A0008D910190801921F441505040C8F7881B4F
:1021B000990B0895FB01DC0102C001900D92415082
:1021C0005040D8F70895FB01DC010D900020E9F79D
:1021D000119701900D920020E1F70895FC01819183
:1021E000861721F08823D9F7992708953197CF01D1
:1021F0000895FB01DC0101900D920020E1F70895A4
:10220000FB01DC014150504030F08D91019080196C
:1022100019F40020B9F7881B990B0895FB01DC0124
:102220004150504048F001900D920020C9F701C084
:102230001D9241505040E0F70895AEE0B0E0E3E277
:10224000F1E10C94DFE90D891E898EE08C831A83FD
:1022500009838FEF9FE79E838D839E01275E3F4F0B
:10226000CE0101966F89788DA9010AD02F8138851A
:10227000020F131FF80110822E96E4E00C94FBE984
:10228000ABE0B0E0E6E4F1E10C94D1E93C012B01D4
:102290005A01FC0117821682838181FD03C06FEF12
:1022A0007FEFB9C19AE0892E1E010894211C311CD0
:1022B000F3012381F20123FD859123FF81912F01F9
:1022C000882309F4A5C1853239F423FD859123FFC4
:1022D00081912F01853221F490E0B301B7D1E8CF8D
:1022E000982FFF24EE249924FFE1FF15D0F09B32B4
:1022F00069F09C3228F4903259F0933291F40EC078
:102300009D3249F0903369F441E024C052E0F52A4F
:1023100084E0F82A28C098E0F92A25C0E0E1FE2AE6
:1023200022C0F7FC29C0892F80538A3070F4F6FE52
:1023300005C0989C902C1124980E15C0E89CE02CA8
:102340001124E80EF0E2FF2A0EC09E3229F4F6FCBA
:102350005FC140E4F42A07C09C3619F450E8F52A1E
:1023600002C0983649F4F20123FD959123FF919123
:102370002F01992309F0B8CF892F8554833018F0A5
:102380008052833038F444E050E0A40EB51E5FE381
:1023900059830FC0933631F0933779F0933509F0B4
:1023A00052C01FC0F5018081898342E050E0A40E35
:1023B000B51E610101E010E011C0F501C080D180BF
:1023C000F6FC03C06FEF7FEF02C0692D70E042E0C2
:1023D00050E0A40EB51EC6012ED18C015FE7F52298
:1023E00013C0F501C080D180F6FC03C06FEF7FEF12
:1023F00002C0692D70E042E050E0A40EB51EC60197
:102400000FD18C0150E8F52AF3FE06C018C080E217
:1024100090E0B3011BD1EA948E2D90E008171907C4
:10242000B0F30DC0F601F7FC8591F7FE81916F01C5
:1024300090E0B3010BD1E110EA9401501040011576
:10244000110581F7E2C0943611F0993661F5F7FE77
:1024500008C0F501208131814281538184E090E000
:102460000AC0F501808191819C01442737FD409588
:10247000542F82E090E0A80EB91E9FE6F92257FF84
:1024800009C050954095309521953F4F4F4F5F4F74
:10249000E0E8FE2ACA01B901A1012AE030E002D138
:1024A000D82ED2183FC0953729F41F2D1F7E2AE061
:1024B00030E01DC01F2D197F9F3661F0903720F44A
:1024C000983509F0A5C00FC0903739F0983709F05A
:1024D0009FC004C028E030E00AC0106114FD146001
:1024E00020E130E004C014FD166020E132E017FF67
:1024F00008C0F501608171818281938144E050E0E0
:1025000008C0F50180819181BC0180E090E042E04B
:1025100050E0A40EB51EA101C5D0D82ED2188FE769
:10252000F82EF122F6FE0BC05EEFF522D91438F436
:10253000F4FE07C0F2FC05C08FEEF82202C01D2D8C
:1025400001C0192DF4FE0DC0FE01ED0DF11D8081BD
:10255000803319F499EEF92208C01F5FF2FE05C01E
:1025600003C08F2D867809F01F5F0F2DF3FC13C079
:10257000F0FE0EC01E1510F09D2C0AC09D2C9E0C66
:10258000911A1E2D05C080E290E0B3015FD01F5F5D
:102590001E15C8F304C01E1510F4E11A01C0EE2484
:1025A00004FF0EC080E390E0B30150D002FF1BC0D7
:1025B00001FD03C088E790E00EC088E590E00BC005
:1025C000802F867881F001FF02C08BE201C080E29B
:1025D000F7FC8DE290E0B30139D005C080E390E0D4
:1025E000B30134D09A94D914C8F3DA94F101ED0D03
:1025F000F11D808190E0B30129D0DD20B1F705C045
:1026000080E290E0B30122D0EA94EE20C9F750CEE8
:10261000F30166817781CB012B96E2E10C94EDE921
:10262000FC010590615070400110D8F7809590959D
:102630008E0F9F1F0895FC016150704001900110A2
:10264000D8F7809590958E0F9F1F08950F931F9335
:10265000CF93DF938C01EB018B8181FF1BC082FF45
:102660000DC02E813F818C819D812817390764F42C
:10267000E881F9810193F983E88306C0E885F9854B
:10268000802F0995892B31F48E819F8101969F833C
:102690008E8302C00FEF1FEFC801DF91CF911F9112
:1026A0000F910895FA01AA27283051F1203181F1C4
:1026B000E8946F936E7F6E5F7F4F8F4F9F4FAF4F4A
:1026C000B1E03ED0B4E03CD0670F781F891F9A1F5D
:1026D000A11D680F791F8A1F911DA11D6A0F711D11
:1026E000811D911DA11D20D009F468943F912AE01D
:1026F000269F11243019305D3193DEF6CF01089505
:10270000462F4770405D4193B3E00FD0C9F7F6CF35
:10271000462F4F70405D4A3318F0495D31FD4052FD
:10272000419302D0A9F7EACFB4E0A6959795879593
:1027300077956795BA95C9F7009761057105089572
:102740009B01AC010A2E069457954795379527951E
:10275000BA95C9F7620F731F841F951FA01D0895B6
:10276000DF93CF930F92CDB7DEB7FC016983A081D1
:10277000B18112962D913C911397BE016F5F7F4FEF
:1027800041E050E0F90109950F90CF91DF91089554
:10279000FC01128213820895FC018381882311F0C9
:1027A00081E082830895FC01828181111282089563
:1027B000CF93DF93DC01FC01E756FE4F80819181CE
:1027C0000097A1F1019791838083ED01CE5ADF4FED
:1027D000FD01E059FF4F8BE1019009928150E1F733
:1027E000FD01EF5AFF4FA159BF4F8C91AF56B0403A
:1027F0008083FD01E059FF4F20E030E0AD014756F6
:102800005E4F0EC02F5F3F4FEF01DF015E968BE101
:102810000D9009928150E1F7858D319780837F96E5
:10282000DA018D919C912817390760F3DF91CF91E0
:102830000895FC018FE693E091838083868188234D
:1028400021F0CF0103960C94CB7B0895CF93DF93B7
:10285000DB010D900020E9F71197A61BB70BEC01E7
:10286000E881F9810280F381E02DAD010995DF91C6
:10287000CF910895CF92DF92EF92FF920F931F9323
:10288000DF93CF93CDB7DEB76E970FB6F894DEBF68
:102890000FBECDBF8C016B010B5A1F4FD8018C911D
:1028A00005551040882321F47FE2E72EF12C03C068
:1028B0006FE4E62EF12CE00EF11E8FE693E09A8392
:1028C00089831B821F821C82B7016D5F7F4FCE01FF
:1028D0000496A60121E00E94B882882329F5EFEE34
:1028E000F0E064918F0107C088E592E139DF0F5F66
:1028F0001F4FF80164916623B9F7E5EFF0E06491AA
:102900008F0107C088E592E12BDF0F5F1F4FF801B1
:1029100064916623B9F788E592E1B60197DF88E50F
:1029200092E16AE01DDF57C0F801E756FE4F2081B3
:1029300031812A30310508F03FC02F5F3F4F31838E
:10294000208321503040C901880F991FF90145E0CB
:10295000EE0FFF1F4A95E1F7E81BF90BE059FF4F17
:10296000E00FF11F11C0AF01425E5F4FBF018BE16D
:10297000DB010D90BD01DA010D92AD018150C1F76F
:1029800082913196858F7E9721503040BFEF2E3F48
:102990003B0749F7D801A059BF4FF70133968BE1A8
:1029A00001900D928150E1F701591F4FF70182818B
:1029B000D8018C930F561040D801AE5ABF4FFE017C
:1029C00034968BE101900D928150E1F70F5A1F4F21
:1029D0008B81F8018083CE0101962BDF6E960FB6B6
:1029E000F894DEBF0FBECDBFCF91DF911F910F9145
:1029F000FF90EF90DF90CF900895EF92FF920F93AA
:102A00001F938C01E1ECEE2EE1E0FE2EE80EF91EA4
:102A1000C7010E947E7BC7010E94CB7BF801108218
:102A200011821F910F91FF90EF900895CF92DF9246
:102A3000EF92FF920F931F93CF93DF937C016B0173
:102A4000DB010D900020E9F78D0101501040061BBD
:102A5000170BE1ECF1E0EE0EFF1ED7011C92EFE345
:102A6000FEEFEE0EFF1ECB016EE470E0B7DBEC0173
:102A7000009731F4F8013197EC0DFD1D86010CC073
:102A800060E270E0ABDB8C010F5F1F4FCE016AE2AA
:102A900070E0A4DBFC0131978DE081838AE08283C2
:102AA0001382C70182549E4FB8010E94B18381EC0A
:102AB00091E0E80EF91ED7018C918823F1F0EFE147
:102AC000F1E06491EF0106C088E592E149DE2196CC
:102AD000FE0164916623C1F7E6E2F1E06491EF0143
:102AE00006C088E592E13CDE2196FE0164916623F2
:102AF000C1F788E592E16AE033DEDF91CF911F9163
:102B00000F91FF90EF90DF90CF9008950F931F9358
:102B1000CF93DF938C01FC018381882309F435C0B6
:102B2000EEE4F1E06491EF0106C088E592E118DE81
:102B30002196FE0164916623C1F70A581D4FF801E2
:102B400040815181628173810657124088E592E18C
:102B500020E00E9481E1ECE4F1E06491EF0106C025
:102B600088E592E1FDDD2196FE0164916623C1F7BF
:102B700002591D4FF801408151816281738188E5BE
:102B800092E120E00E9481E10DC0ECE3F1E064916C
:102B9000EF0106C088E592E1E3DD2196FE01649134
:102BA0006623C1F788E592E16AE0DADDDF91CF9133
:102BB0001F910F9108952F923F924F925F926F92C3
:102BC0007F928F929F92AF92BF92CF92DF92EF92BD
:102BD000FF920F931F93DF93CF93CDB7DEB7AB97E1
:102BE0000FB6F894DEBF0FBECDBF5C014B01FC01F8
:102BF0008381882309F40BC1C5018F539E4F0E9426
:102C0000CB7BF5011282198A1C8A188A8FE693E021
:102C10009F878E87ADE4CA2ED12CCA0CDB1C2FE215
:102C200030E0A20EB31EF601B182A08221ED3FEF8B
:102C3000A20EB31EF40180818F3209F079C0C40165
:102C40006FE270E0CBDA7C010894E11CF11C3E01DC
:102C50000894611C711C2601F1E12F2E312C2C0EE1
:102C60003D1E61C0C7016FE270E0B8DA6C010097E9
:102C700009F46CC0E816F90608F068C08C010E195A
:102C80001F09C301B701A801C9DA060D171DF80114
:102C9000108288E592E1B301D9DD88E592E16AE02E
:102CA0005FDDF201608171816115710519F460E0E9
:102CB00070E002C06D5F7F4FC101A30121E00E945F
:102CC000B882882329F5EAE8F1E064917F0108C021
:102CD00088E592E145DD0894E11CF11CF70164915F
:102CE0006623B1F788E592E1BE016F5F7F4FAEDDED
:102CF000E8E8F1E064917F0108C088E592E130DD09
:102D00000894E11CF11CF70164916623B1F778C0C7
:102D10002EE030E02C0F3D1FF2013183208376013D
:102D20000894E11CF11CE114F10409F09BCF0BC0E5
:102D30008FE490E0A80EB91EF601B182A08221EBCB
:102D40003FEFA20EB31ED82C092D02C0DE2C0F2D92
:102D50008DE490E0A80EB91EF5018081918123EBEE
:102D60003FEFA20EB31E009719F480E090E001C07F
:102D700003966D2D702F0E9484838823F1F0EAE77B
:102D8000F1E064917F0108C088E592E1E9DC0894F4
:102D9000E11CF11CF70164916623B1F788E592E12B
:102DA0006D2D702F53DD26E732E0A20EB31EF50124
:102DB000108211821282138227C0E2E6F1E0649150
:102DC0007F0108C088E592E1CBDC0894E11CF11C8E
:102DD000F70164916623B1F788E592E16D2D702FBC
:102DE00035DDE0E6F1E064917F0108C088E592E11D
:102DF000B7DC0894E11CF11CF70164916623B1F77C
:102E000088E592E16AE0ACDCCE010E9612DDAB966D
:102E10000FB6F894DEBF0FBECDBFCF91DF911F91EB
:102E20000F91FF90EF90DF90CF90BF90AF909F9069
:102E30008F907F906F905F904F903F902F9008956C
:102E4000BF92CF92DF92EF92FF920F931F93CF9397
:102E5000DF938C01EB018FE28993EE24E394FF244E
:102E600089E9C82E81E0D82EC00ED11EBEE1BB2E4E
:102E700014C0FB9CC001112480599F4F800F911FEB
:102E8000BE010E94DB7B02C02196E39488818823E7
:102E900019F08CE88E15C0F7F3942F2D30E0F60171
:102EA000808191812817390720F3E7FC07C0C8010A
:102EB0008F539E4FBE010E94DB7B01C01882DF91C1
:102EC000CF911F910F91FF90EF90DF90CF90BF9027
:102ED00008952F923F924F925F926F927F928F92BE
:102EE0009F92AF92BF92CF92DF92EF92FF920F9399
:102EF0001F93DF93CF93CDB7DEB7AC970FB6F8949F
:102F0000DEBF0FBECDBF5C014B014CA7DC011396A9
:102F10008C91882309F4D8C2E4ECF1E0AE0EBF1E18
:102F2000D5018C91ECE3FEEFAE0EBF1E882309F4B1
:102F3000F1C0222309F0C2C02CED31E0A20EB31E75
:102F4000D5018C91E4E2FEEFAE0EBF1E882369F13D
:102F5000EFE1F1E064917F0108C088E592E100DCD7
:102F60000894E11CF11CF70164916623B1F7E2E6D5
:102F7000F2E064917F0108C088E592E1F1DB0894FA
:102F8000E11CF11CF70164916623B1F788E592E139
:102F900041E050E060E070E00E94E1E188E592E10C
:102FA0006AE0DEDB0E942F2D8FC2EFEEF0E064912D
:102FB0007F0108C088E592E1D3DB0894E11CF11C95
:102FC000F70164916623B1F7E9E4F2E064917F01CF
:102FD00008C088E592E1C4DB0894E11CF11CF7010C
:102FE00064916623B1F788E592E1B4012FDCEEE34A
:102FF000F2E064917F0108C088E592E1B1DB0894BA
:10300000E11CF11CF70164916623B1F785010452BC
:103010001E4FD8016C914DE8F42E6F9DB001112424
:103020006F517E4F6A0D7B1DC5010ADFF80160817B
:103030006F9DB00111246F517E4F6A0D7B1D88E595
:1030400092E104DCE8E3F2E064917F0108C088E5E6
:1030500092E186DB0894E11CF11CF7016491662380
:10306000B1F785010A581D4FD8014D915D916D91C1
:103070007C9188E592E120E00E9481E188E592E17F
:103080006AE06EDBA50144525E4FFA012081E22F17
:10309000F0E0EE0FFF1FEE0FFF1FEA0DFB1DE352E6
:1030A000FE4FD801CD90DD90ED90FC90C082D18292
:1030B000E282F3822F5FFA01208326C0EFEEF0E078
:1030C00064917F0108C088E592E14ADB0894E11C25
:1030D000F11CF70164916623B1F7E7E2F2E0649135
:1030E0007F0108C088E592E13BDB0894E11CF11CFC
:1030F000F70164916623B1F788E592E1B401A6DB9C
:1031000088E592E16AE02CDBC5018F539E4F0E9457
:10311000CB7B30C02CED31E0A20EB31ED5011C924A
:10312000E4E2FEEFAE0EBF1EEFEEF0E064917F0131
:1031300008C088E592E114DB0894E11CF11CF7015A
:1031400064916623B1F7E6E1F2E064917F0108C083
:1031500088E592E105DB0894E11CF11CF70164911C
:103160006623B1F788E592E1B40170DB88E592E16E
:103170006AE0F6DAD50112961C92198A1C8A188A1E
:103180008FE693E09F878E872DE4C22ED12CCA0C48
:10319000DB1CEFE2F0E0AE0EBF1ED601AD92BC929A
:1031A000E1EDFFEFAE0EBF1ED4018C918F3209F01E
:1031B0007AC0C4016FE270E011D87C010894E11C70
:1031C000F11C3E010894611C711C260191E1292E1D
:1031D000312C2C0E3D1E62C0C7016FE270E00E94D0
:1031E000EE106C01009709F46CC0E816F90608F0BF
:1031F00068C08C010E191F09C301B701A8010ED8C0
:10320000060D171DF801108288E592E1B3011EDB5F
:1032100088E592E16AE0A4DAD2016D917C916115B2
:10322000710519F460E070E002C06D5F7F4FC1016D
:10323000A30121E00E94B882882329F5E2E0F2E0B0
:1032400064917F0108C088E592E18ADA0894E11C64
:10325000F11CF70164916623B1F788E592E1BE01A4
:103260006F5F7F4FF3DAE0E0F2E064917F0108C026
:1032700088E592E175DA0894E11CF11CF70164918C
:103280006623B1F7FBC0EEE0F0E0EC0FFD1FD201CA
:10329000ED93FC9376010894E11CF11CE114F10418
:1032A00009F09ACF0BC02FE430E0A20EB31ED60176
:1032B000AD92BC92E1EBFFEFAE0EBF1E082DD92CF4
:1032C00002C00E2DDF2CF501E35BFF4F2CA522235E
:1032D00009F49DC0608171816115710519F460E088
:1032E00070E002C06D5F7F4FC5018F539E4F402F2E
:1032F0005D2D21E00E94B882882309F464C0A501F5
:1033000042595D4F82ED91E0A80EB91EF501808112
:103310009181A281B3812EE23EEFA20EB31EFA018B
:1033200080839183A283B383E2EFF1E064917F0114
:1033300008C088E592E114DA0894E11CF11CF70159
:1033400064916623B1F788E592E1602F7D2D7EDAE6
:10335000EAEEF1E064917F0108C088E592E100DACD
:103360000894E11CF11CF70164916623B1F72EE685
:1033700032E0A20EB31ED5014D915D916D917C910D
:1033800088E592E120E00E9481E188E592E16AE02F
:10339000E7D9E8E0F0E0AE0EBF1ED5011D921D9208
:1033A0001D921C921397ECEDF1E064917F0108C02F
:1033B00088E592E1D5D90894E11CF11CF7016491EC
:1033C0006623B1F776C0E8ECF1E064917F0108C0B4
:1033D00088E592E1C5D90894E11CF11CF7016491DC
:1033E0006623B1F788E592E1602F7D2D2FDAE6ECB8
:1033F000F1E064917F0108C088E592E1B1D90894B9
:10340000E11CF11CF70164916623B1F737C06081BC
:1034100071816115710519F460E070E002C06D5FA3
:103420007F4FC5018F539E4F402F5D2D26E50E9493
:10343000B882882341F5E2EBF1E064917F0108C096
:1034400088E592E18DD90894E11CF11CF7016491A3
:103450006623B1F788E592E1602F7D2DF7D9E0EB87
:10346000F1E064917F0108C088E592E179D9089480
:10347000E11CF11CF70164916623B1F788E592E144
:103480006AE06ED91EC081E0D5018C93EEE9F1E0CF
:1034900064917F0108C088E592E162D90894E11C3B
:1034A000F11CF70164916623B1F788E592E1B4015C
:1034B000CDD988E592E16AE053D9802F9D2D0E94F5
:1034C000EDCBCE010E96B5D9AC960FB6F894DEBF13
:1034D0000FBECDBFCF91DF911F910F91FF90EF9065
:1034E000DF90CF90BF90AF909F908F907F906F9024
:1034F0005F904F903F902F900895EF92FF920F931F
:103500001F93CF93DF93EC010E94058B8E01045231
:103510001E4FD8018C9171ECE72E71E0F72EEC0E66
:10352000FD1E882399F1C7010E94CB7BF8016081C1
:10353000615060838DE8689FB00111246F517E4F08
:103540006C0F7D1FCE0141E021E0C3DCD801EC917E
:10355000F0E0EE0FFF1FEE0FFF1FEC0FFD1FE35219
:10356000FE4F4081518162817381CA58DD4F48838B
:1035700059836A837B83C657D240C7010E94B47ABD
:103580008B81882389F181E08A832EC00E945E8925
:10359000C7010E94CB7B1A8283EE90E00E942D5DD2
:1035A00080910E09882301F110920E098091BA06CC
:1035B000C82FD0E0CC0FDD1FCD57DF4E6881798159
:1035C000882777FD8095982F0E9425E62091A102FB
:1035D0003091A2024091A3025091A4020E9491E76F
:1035E000181614F419821882DF91CF911F910F9150
:1035F000FF90EF900895FC0181E08183CF0140E0CE
:1036000021E067CCEF92FF920F931F93CF93DF934C
:103610008C01FC01138285A9882321F0C801C29680
:103620000E94CB7BEBE9EE2EE1E0FE2EE00EF11ED8
:10363000C70160E044E10E9475798823D9F4EFEE78
:10364000F0E06491EF0106C088E592E189D8219607
:10365000FE0164916623C1F7E3EDF2E06491EF01AE
:1036600006C088E592E17CD82196FE01649166232C
:10367000C1F76BC0E801C056DE4FCE01B70141E093
:103680000E944284882311F5CE01B70140E00E94D8
:1036900042848823D9F4EFE1F1E06491EF0106C0A0
:1036A00088E592E15DD82196FE0164916623C1F719
:1036B000E0ECF2E06491EF0106C088E592E150D8B9
:1036C0002196FE0164916623C1F73FC0C801C296EE
:1036D000BE010E94BD7E8823D9F4EFE1F1E0649140
:1036E000EF0106C088E592E13BD82196FE01649186
:1036F0006623C1F7E0EBF2E06491EF0106C088E5D4
:1037000092E12ED82196FE0164916623C1F71DC077
:1037100081E0F8018383EFEEF0E06491EF0106C0F1
:1037200088E592E11DD82196FE0164916623C1F7D8
:10373000E5EAF2E06491EF0106C088E592E110D875
:103740002196FE0164916623C1F788E592E16AE063
:1037500007D8D801AE5ABF4FF801F2968BE101901D
:103760000D928150E1F7F80181A90F5A1F4FF8011E
:10377000808301551040C8018F96035B1F4FF801ED
:1037800091838083DF91CF911F910F91FF90EF90F4
:1037900008952F923F924F925F926F927F929F92E5
:1037A000AF92BF92CF92DF92EF92FF920F931F934F
:1037B000DF93CF93CDB7DEB7CC55D0400FB6F8949A
:1037C000DEBF0FBECDBF8C01662319F506581D4F15
:1037D000D8018C910A571240882309F4E6C00FB62D
:1037E000F894209150123091511240915212509100
:1037F00053120FBE0E581D4FF80180819181A28196
:10380000B3810257124082179307A407B50708F443
:10381000CCC006581D4FD8011C920A571240F8011F
:103820008381882341F4C801EDDED80113968C9181
:10383000882309F4BAC000D000D000D0EDB7FEB79D
:1038400031966E010894C11CD11CADB7BEB712965B
:10385000DC92CE92119786E191E093838283D80126
:103860009D968D919C919E97958384830E941D11B6
:103870007601EDB7FEB736960FB6F894FEBF0FBED1
:10388000EDBF56010AC0D7018C91992787FD90950D
:103890000E94C6E9F70181937F01F50101900020A4
:1038A000E9F73197EA19FB098E2D8C198E175CF315
:1038B00082E3A82EB12CA00EB11EC50140E050E05D
:1038C00060E070E00E94B47A9924BDE3CB2ED12C45
:1038D000CC0EDD1E2E010894411C511CAFE16A2E56
:1038E000712C6C0E7D1EFFE02F2EF1E03F2E43C0A9
:1038F000D7018C9190E00E94C6E9F70181937F0186
:10390000D6010D900020E9F71197AC19BD098E2D55
:103910008C198A176CF327968FAD27978E3759F13C
:10392000C601B20145E050E00E940011009719F570
:1039300000D000D000D0EDB7FEB73196ADB7BEB71E
:1039400012967C926E921197338222825582448223
:103950000E941D11EDB7FEB736960FB6F894FEBF64
:103960000FBEEDBFC3010E94A45D8BE091E00E94F9
:103970002D5D99249394C501B60140E050E00E946A
:10398000DC7D181614F47601BBCF992041F48FEF3B
:103990009FEFD8019E969C938E939D9706C0F80149
:1039A00085A596A5019696A785A7C45ADF4F0FB6A1
:1039B000F894DEBF0FBECDBFCF91DF911F910F9165
:1039C000FF90EF90DF90CF90BF90AF909F907F904F
:1039D0006F905F904F903F902F9008952F923F925D
:1039E0004F925F926F927F928F929F92AF92BF920F
:1039F000CF92DF92EF92FF920F931F93DF93CF93BB
:103A0000CDB7DEB7CD58D0400FB6F894DEBF0FBEAD
:103A1000CDBF7C012B015A0183E090E0A80EB91EB6
:103A2000F7017196C957DF4FF983E883C758D04033
:103A3000C7010496CC57DF4F99838883C458D04080
:103A4000CA57DF4F1882C658D04044E6C42ED12C46
:103A5000CC0EDD1EF6013B96C757DF4FF983E88396
:103A6000C958D0403BE7632E32E0732E6E0C7F1CAA
:103A70002DE7822E22E0922E8E0C9F1C96E4292E9A
:103A8000312C2C0E3D1EC1010396C557DF4F998383
:103A90008883CB58D040EFEEF0E09491C357DF4FCE
:103AA0009883CD58D0402FC1F6018385482F50E030
:103AB000BA01687170706031710509F032C1F301AB
:103AC000208131812130310509F42BC122303105AB
:103AD00009F427C1F601DE0111969081903239F088
:103AE0008E2F8C19883011F48EE28D939D93319630
:103AF000C757DF4F88819981C958D040E817F90727
:103B000061F71C921E86F2018081882331F4CE0178
:103B10000E9660E071E00E94E310CE010E96B201B5
:103B20000E94E310CE010E96BE016F5F7F4F0E9490
:103B3000E310CE010E9660E071E00E94E3101BA638
:103B40001EA61AA68FE693E099A788A7CE018B96AA
:103B5000B501AE014F5F5F4F21E00E94B88288231C
:103B600071F5F30180819181892B49F5C357DF4FAE
:103B70006881CD58D0400FEE10E008C088E592E192
:103B80000E94B0130F5F1F4FF80164916623B1F7D5
:103B900088E592E162E071E00E94261488E592E1F6
:103BA0006AE00E94B01388E592E1BE016F5F7F4F2B
:103BB0000E94261488E592E16AE00E94B013C5577E
:103BC000DF4FA881B981CB58D040FE01BB968BE175
:103BD00001900D928150E1F78AA5F10182838FE671
:103BE00093E091838083C701BE01625F7F4FA10193
:103BF000F5DEC1010E941914CE0188960E941914A5
:103C000082C0953E09F47FC09E3209F47CC09F3586
:103C100009F479C0F7019189992331F09E3209F4B2
:103C200072C09F3509F46FC043FD6DC080E0603104
:103C3000710509F481E0F70184A7882349F4F601AE
:103C40008085873409F05FC081858E3709F45BC0B9
:103C5000CC57DF4FA881B981C458D040F60180818C
:103C6000803241F08E2F8C19883011F48EE28D93C2
:103C700080818D933196C757DF4F88819981C958CC
:103C8000D040E817F90759F71C92F3018081918120
:103C90000097A9F488E592E1B2010E94261488E514
:103CA00092E1CC57DF4F68817981C458D0400E949F
:103CB000261488E592E16AE00E94B01324C08130A6
:103CC000910539F4F401808191810196918380837B
:103CD0001AC00297C1F4CA57DF4FF881C658D040C6
:103CE0002F2F30E0F4018081918128173907F1F0FE
:103CF000CA57DF4FF881C658D040FF5FCA57DF4F21
:103D0000F883C658D040C501B601C957DF4F488176
:103D10005981C758D0400E94DC7D18160CF4C4CEDF
:103D200005C0F6019081992309F06BCFC357DF4F8F
:103D30000FB6F894DEBF0FBECDBFCF91DF911F91BC
:103D40000F91FF90EF90DF90CF90BF90AF909F903A
:103D50008F907F906F905F904F903F902F9008953D
:103D6000EF92FF920F931F93DF93CF93CDB7DEB700
:103D70006E970FB6F894DEBF0FBECDBF7C018C01ED
:103D8000035B1F4F815B9F4FF801918380832BE77B
:103D900032E0E20EF31E21E030E0F701219331938F
:103DA0007F011182108223E83DEFE20EF31E03969D
:103DB00040E050E060E070E00E94B47AF8012081B9
:103DC0003181DE011496F90133968BE101900D9259
:103DD0008150E1F7F90182818B838FE693E09A832A
:103DE0008983C70165E171E08E010F5F1F4FA80154
:103DF000F5DDC8010E941914F701E358FD4F8081D9
:103E000091816E960FB6F894DEBF0FBECDBFCF91F5
:103E1000DF911F910F91FF90EF900895EF92FF9225
:103E20000F931F93DF93CF93CDB7DEB76E970FB687
:103E3000F894DEBF0FBECDBF7C018C01035B1F4F2A
:103E4000815B9F4FF801918380832BE732E0E20E84
:103E5000F31E22E030E0F7013183208325E83DEFB7
:103E6000E20EF31EF701E358FD4F608311820396C3
:103E700040E050E060E070E00E94B47AF8012081F8
:103E80003181DE011496F90133968BE101900D9298
:103E90008150E1F7F90182818B838FE693E09A8369
:103EA0008983C70165E171E08E010F5F1F4FA80193
:103EB00095DDC8010E9419146E960FB6F894DEBF06
:103EC0000FBECDBFCF91DF911F910F91FF90EF906B
:103ED0000895EF92FF920F931F93DF93CF93CDB787
:103EE000DEB76E970FB6F894DEBF0FBECDBF7C0174
:103EF0008BE792E0E80EF91EF7011182108285E847
:103F00009DEFE80EF91E87010E5C1F4FC80140E0CF
:103F100050E060E070E00E94B47ADE011496F8018F
:103F20008BE101900D928150E1F7F70181A98B831C
:103F30008FE693E09A838983C70165E171E08E0182
:103F40000F5F1F4FA8014ADDC8010E9419146E9629
:103F50000FB6F894DEBF0FBECDBFCF91DF911F919A
:103F60000F91FF90EF900895CF93DF93EC011AAA81
:103F70001DAA19AA8FE693E098AB8FA7CE5ADF4F00
:103F8000188223961882C555D040FE01E15BFF4F91
:103F9000CF5ADF4F1882C155D04091838083DE0114
:103FA000A359BF4FFD0120E030E0482F1382168255
:103FB000128240839183225E3F4F7E9681E02C32B5
:103FC0003807A1F7C456DE4F89E18883239618820B
:103FD000689618822A96188223961882C45CD1406B
:103FE000FE01E254FE4FC054DE4F1882408391839D
:103FF000C255DF4F188219821A821B8228961882B6
:1040000019821A821B82C657D2401A821B821882DA
:104010001982C756DE4F19821882CD5BDF4F188296
:10402000FD01C90111920197E9F7C256DF4F81E006
:104030008883CA57D2401EA61DA60FB6F894809159
:10404000501290915112A0915212B09153120FBE82
:1040500088579C4EAF4FBF4FCE58DD4F8883998312
:10406000AA83BB83DF91CF9108950F931F93DF93B2
:10407000CF93CDB7DEB72A970FB6F894DEBF0FBE49
:10408000CDBF8091160190911701A0911801B091B8
:1040900019018B839C83AD83BE83FE01339624E696
:1040A00030E08081F999FECF1FBA32BD21BD80BDBD
:1040B0000FB6F894FA9AF99A0FBE2F5F3F4F283641
:1040C000310511F03196EDCFE2EBF8E08081F999FE
:1040D000FECF1FBA32BD21BD80BD0FB6F894FA9A4B
:1040E000F99A0FBE2F5F3F4F2837310511F03196F7
:1040F000EDCFE2EAF8E08081F999FECF1FBA32BD38
:1041000021BD80BD0FB6F894FA9AF99A0FBE2F5FC1
:104110003F4F2838310511F03196EDCFE2ECF8E051
:104120008081F999FECF1FBA32BD21BD80BD0FB687
:10413000F894FA9AF99A0FBE2F5F3F4F283931054C
:1041400011F03196EDCFE6EDF8E08081F999FECFE0
:104150001FBA32BD21BD80BD0FB6F894FA9AF99A04
:104160000FBE2F5F3F4F2C39310511F03196EDCF47
:10417000EAEDF8E08081F999FECF1FBA32BD21BD8A
:1041800080BD0FB6F894FA9AF99A0FBE2F5F3F4F91
:10419000203A310511F03196EDCFE2EDF8E0808163
:1041A000F999FECF1FBA32BD21BD80BD0FB6F8947C
:1041B000FA9AF99A0FBE2F5F3F4F243A310511F05A
:1041C0003196EDCFEAEEF8E08081F999FECF1FBA83
:1041D00032BD21BD80BD0FB6F894FA9AF99A0FBE90
:1041E0002F5F3F4F283A310511F03196EDCFEEE9C0
:1041F000F8E08081F999FECF1FBA32BD21BD80BDA4
:104200000FB6F894FA9AF99A0FBE2F5F3F4F2C3AE7
:10421000310511F03196EDCFEEEDF8E08081F9999E
:10422000FECF1FBA32BD21BD80BD0FB6F894FA9AF9
:10423000F99A0FBE2F5F3F4F203B310511F03196A9
:10424000EDCFE2EEF8E08081F999FECF1FBA32BDE2
:1042500021BD80BD0FB6F894FA9AF99A0FBE2F5F70
:104260003F4F243B310511F03196EDCFE6EEF8E0FB
:104270008081F999FECF1FBA32BD21BD80BD0FB636
:10428000F894FA9AF99A0FBE2F5F3F4F283B3105F9
:1042900011F03196EDCFE7E8F6E08081F999FECF95
:1042A0001FBA32BD21BD80BD0FB6F894FA9AF99AB3
:1042B0000FBE2F5F3F4F243C310511F03196EDCFFB
:1042C000E3E3F1E18081F999FECF1FBA32BD21BD50
:1042D00080BD0FB6F894FA9AF99A0FBE2F5F3F4F40
:1042E000263C310511F03196EDCFE5E3F1E1808117
:1042F000F999FECF1FBA32BD21BD80BD0FB6F8942B
:10430000FA9AF99A0FBE2F5F3F4F283C310511F002
:104310003196EDCFE7E3F1E18081F999FECF1FBA45
:1043200032BD21BD80BD0FB6F894FA9AF99A0FBE3E
:104330002F5F3F4F2A3C310511F03196EDCFE9E375
:10434000F1E18081F999FECF1FBA32BD21BD80BD58
:104350000FB6F894FA9AF99A0FBE2F5F3F4F2C3C94
:10436000310511F03196EDCFEBE3F1E18081F99960
:10437000FECF1FBA32BD21BD80BD0FB6F894FA9AA8
:10438000F99A0FBE2F5F3F4F2E3C310511F0319649
:10439000EDCFEDE3F1E18081F999FECF1FBA32BD97
:1043A00021BD80BD0FB6F894FA9AF99A0FBE2F5F1F
:1043B0003F4F203D310511F03196EDCFE4E6F2E0BC
:1043C0008081F999FECF1FBA32BD21BD80BD0FB6E5
:1043D000F894FA9AF99A0FBE2F5F3F4F243D3105AA
:1043E00011F03196EDCFE8E6F2E08081F999FECF49
:1043F0001FBA32BD21BD80BD0FB6F894FA9AF99A62
:104400000FBE2F5F3F4F283D310511F03196EDCFA4
:10441000ECE6F2E08081F999FECF1FBA32BD21BDF2
:1044200080BD0FB6F894FA9AF99A0FBE2F5F3F4FEE
:104430002C3D310511F03196EDCFE2EBF2E08081B9
:10444000F999FECF1FBA32BD21BD80BD0FB6F894D9
:10445000FA9AF99A0FBE2F5F3F4F203E310511F0B7
:104460003196EDCFE6EBF2E08081F999FECF1FBAED
:1044700032BD21BD80BD0FB6F894FA9AF99A0FBEED
:104480002F5F3F4F243E310511F03196EDCFEAEB1F
:10449000F2E08081F999FECF1FBA32BD21BD80BD07
:1044A0000FB6F894FA9AF99A0FBE2F5F3F4F283E45
:1044B000310511F03196EDCF80E290E09A83898347
:1044C000FE0131968081F999FECF1FBA32BD21BD20
:1044D00080BD0FB6F894FA9AF99A0FBE2F5F3F4F3E
:1044E0002A3E310571F7E7ECF6E08081F999FECFBD
:1044F0001FBA32BD21BD80BD0FB6F894FA9AF99A61
:104500000FBE2F5F3F4F2E3E310511F03196EDCF9C
:10451000E8E5F2E08081F999FECF1FBA32BD21BDF6
:1045200080BD0FB6F894FA9AF99A0FBE2F5F3F4FED
:10453000223F310511F03196EDCFEBECF6E08081B2
:10454000F999FECF1FBA32BD21BD80BD0FB6F894D8
:10455000FA9AF99A0FBE2F5F3F4F263F310511F0AF
:104560003196EDCFECE5F2E08081F999FECF1FBAEC
:1045700032BD21BD80BD0FB6F894FA9AF99A0FBEEC
:104580002F5F3F4F2A3F310511F03196EDCFEFEC11
:10459000F6E08081F999FECF1FBA32BD21BD80BD02
:1045A0000FB6F894FA9AF99A0FBE2F5F3F4F2E3F3D
:1045B000310511F03196EDCFE0E6F2E08081F99916
:1045C000FECF1FBA32BD21BD80BD0FB6F894FA9A56
:1045D000F99A0FBE81E02130380721F02F5F3F4F5D
:1045E0003196ECCF80911A0190911B01A0911C0192
:1045F000B0911D018F839887A987BA87FE013796EE
:1046000084E690E02081F999FECF1FBA92BD81BD6A
:1046100020BD0FB6F894FA9AF99A0FBE8736910525
:1046200019F001963196EECFE0EEF2E064918F0141
:1046300008C088E592E10E94B0130F5F1F4FF80198
:1046400064916623B1F7E4E5F5E064918F0108C059
:1046500088E592E10E94B0130F5F1F4FF80164914B
:104660006623B1F788E592E16AE00E94B0132A96CA
:104670000FB6F894DEBF0FBECDBFCF91DF911F9173
:104680000F910895EF92FF920F931F93DF93CF93B3
:10469000CDB7DEB7E0970FB6F894DEBF0FBECDBF43
:1046A000DE011196EFE0F3E080E101900D92815080
:1046B000E1F7DE015196EFEFF2E080E101900D921B
:1046C0008150E1F7DE019196EFEEF2E080E101909A
:1046D0000D928150E1F789819A81AB81BC818093F1
:1046E000B2089093B308A093B408B093B508898931
:1046F0009A89AB89BC898093A2089093A308A09360
:10470000A408B093A50889A19AA1ABA1BCA18093EC
:10471000C2089093C308A093C408B093C5088D81C4
:104720009E81AF81B8858093B6089093B708A09317
:10473000B808B093B9088D899E89AF89B88D8093E8
:10474000A6089093A708A093A808B093A9088DA1E4
:104750009EA1AFA1B8A58093C6089093C708A09367
:10476000C808B093C90889859A85AB85BC858093B4
:10477000BA089093BB08A093BC08B093BD08898D7C
:104780009A8DAB8DBC8D8093AA089093AB08A093B3
:10479000AC08B093AD0889A59AA5ABA5BCA580933C
:1047A000CA089093CB08A093CC08B093CD088D8510
:1047B0009E85AF85B8898093BE089093BF08A0936B
:1047C000C008B093C1088D8D9E8DAF8DB8A1809328
:1047D000AE089093AF08A093B008B093B1088DA530
:1047E0009EA5AFA5B8A98093CE089093CF08A093BB
:1047F000D008B093D1080E94E16480E090E8ABE378
:10480000B5E48093D6089093D708A093D808B093C6
:10481000D9088093DA089093DB08A093DC08B09362
:10482000DD080F2EF0E0EF2EF0E0FF2EF0E00F2F6E
:10483000F0E01F2FF02DE092D208F092D308009301
:10484000D4081093D50880E29EE4A0E0B0E0809305
:104850009E0890939F08A093A008B093A108E092AF
:10486000EA08F092EB080093EC081093ED0880E062
:1048700090E0A0EAB1E48093DE089093DF08A09373
:10488000E008B093E1088DEC9CECACECBEE38093C7
:10489000E2089093E308A093E408B093E50880E071
:1048A00090E0A0EAB0E48093E6089093E708A09334
:1048B000E808B093E908E0928F06F0929006009322
:1048C000910610939206E0928B06F0928C0600936C
:1048D0008D0610938E06E0928706F092880600936C
:1048E000890610938A0684EB90E0909334118093AC
:1048F000331186E490E090933611809335112FEFB9
:1049000030E0309338112093371180EF90E090938E
:104910003A118093391184E690E090933C11809392
:104920003B1130933E1120933D1180E090E0A8ECC4
:10493000B1E48093640290936502A0936602B09301
:104940006702E0926802F092690200936A02109393
:104950006B02E0926C02F0926D0200936E02109373
:104960006F028AE999E9A1EBB1E48093B2029093D6
:10497000B302A093B402B093B50261E77DE38AE885
:104980009FE30E941C936093B6027093B7028093DA
:10499000B8029093B90260E070E084EE92E40E9465
:1049A00028936093BA027093BB028093BC029093E9
:1049B000BD020E94189280E090E0A0E8BFE38093DF
:1049C000BE029093BF02A093C002B093C102E092D6
:1049D000C706F092C8060093C9061093CA06E09273
:1049E000CB06F092CC060093CD061093CE06E09253
:1049F000CF06F092D0060093D1061093D20680E045
:104A000090E0A8ECB2E48093580290935902A093EE
:104A10005A02B0935B0280935C0290935D02A09374
:104A20005E02B0935F0280E090E0A6EEB2E4809375
:104A3000600290936102A0936202B0936302E0EE81
:104A4000F2E064918F0108C088E592E10E94B01302
:104A50000F5F1F4FF80164916623B1F7E6EEF2E0B5
:104A600064918F0108C088E592E10E94B0130F5F46
:104A70001F4FF80164916623B1F788E592E16AE07F
:104A80000E94B013E0960FB6F894DEBF0FBECDBF04
:104A9000CF91DF911F910F91FF90EF9008950F93A9
:104AA0001F93CF93DF9300EE12E0F8016491E801C9
:104AB00007C088E592E10E94B0132196FE0164913F
:104AC0006623B9F7E4E4F5E06491EF0107C088E5F7
:104AD00092E10E94B0132196FE0164916623B9F71A
:104AE00088E592E16AE00E94B013F8016491C0EE9B
:104AF000D2E007C088E592E10E94B0132196FE0142
:104B000064916623B9F74091B2085091B30860915F
:104B1000B4087091B5088CE395E00E94D0344091C0
:104B2000B6085091B7086091B8087091B90889E348
:104B300095E00E94D0344091BA085091BB08609132
:104B4000BC087091BD0886E395E00E94D034409186
:104B5000BE085091BF086091C0087091C10883E3FE
:104B600095E00E94D03488E592E16EE171E00E9408
:104B7000261488E592E16AE00E94B013F80164917E
:104B8000C0EED2E007C088E592E10E94B013219602
:104B9000FE0164916623B9F7E9E1F5E06491EF0164
:104BA00007C088E592E10E94B0132196FE0164914E
:104BB0006623B9F788E592E16AE00E94B013F80134
:104BC0006491C0EED2E007C088E592E10E94B01384
:104BD0002196FE0164916623B9F74091A208509195
:104BE000A3086091A4087091A50880E195E00E9457
:104BF000D0344091A6085091A7086091A808709100
:104C0000A9088DE095E00E94D0344091AA08509107
:104C1000AB086091AC087091AD088AE095E00E9405
:104C2000D0344091AE085091AF086091B0087091B7
:104C3000B10887E095E00E94D03488E592E16EE10A
:104C400071E00E94261488E592E16AE00E94B013A8
:104C5000F8016491C0EED2E007C088E592E10E94BD
:104C6000B0132196FE0164916623B9F7E9EEF4E0F2
:104C70006491EF0107C088E592E10E94B01321968C
:104C8000FE0164916623B9F788E592E16AE00E942B
:104C9000B013F8016491C0EED2E007C088E592E15C
:104CA0000E94B0132196FE0164916623B9F74091EA
:104CB000C2085091C3086091C4087091C50880EE85
:104CC00094E066D64091C6085091C7086091C80824
:104CD0007091C9088DED94E05BD64091CA0850915F
:104CE000CB086091CC087091CD088AED94E050D645
:104CF0004091CE085091CF086091D0087091D108B2
:104D000087ED94E045D688E592E16EE171E00E947E
:104D1000261488E592E16AE00E94B013F8016491DC
:104D2000C0EED2E007C088E592E10E94B013219660
:104D3000FE0164916623B9F7E2EAF4E06491EF01C1
:104D400007C088E592E10E94B0132196FE016491AC
:104D50006623B9F788E592E16AE00E94B013F80192
:104D60006491C0EED2E007C088E592E10E94B013E2
:104D70002196FE0164916623B9F74091D6085091BF
:104D8000D7086091D8087091D90889E994E00E9409
:104D9000D0344091DA085091DB086091DC087091C2
:104DA000DD0886E994E00E94D03488E592E16EE166
:104DB00071E00E94261488E592E16AE00E94B01337
:104DC000F8016491C0EED2E007C088E592E10E944C
:104DD000B0132196FE0164916623B9F7E3EEF3E088
:104DE0006491EF0107C088E592E10E94B01321961B
:104DF000FE0164916623B9F788E592E16AE00E94BA
:104E0000B013F8016491C0EED2E007C088E592E1EA
:104E10000E94B0132196FE0164916623B9F7409178
:104E2000D2085091D3086091D4087091D5088AEDCA
:104E300093E00E94D0344091EA085091EB086091D1
:104E4000EC087091ED0887ED93E00E94D03440911A
:104E50009E0850919F086091A0087091A10884ED70
:104E600093E096D54091DE085091DF086091E0080C
:104E70007091E10881ED93E00E94D0344091E20806
:104E80005091E3086091E4087091E5088EEC93E09E
:104E90000E94D0344091E6085091E7086091E808FC
:104EA0007091E9088BEC93E00E94D03488E592E1A0
:104EB0006EE171E00E94261488E592E16AE00E94AA
:104EC000B013F8016491C0EED2E007C088E592E12A
:104ED0000E94B0132196FE0164916623B9F7E9EBB5
:104EE000F3E06491EF0107C088E592E10E94B013FE
:104EF0002196FE0164916623B9F788E592E16AE0A4
:104F00000E94B013F8016491C0EED2E007C088E5BA
:104F100092E10E94B0132196FE0164916623B9F7D5
:104F200040918706509188066091890670918A06A3
:104F300080EB93E00E94D03440918B0650918C0618
:104F400060918D0670918E068DEA93E00E94D034B8
:104F500040918F0650919006609191067091920653
:104F60008AEA93E00E94D03488E592E16EE171E034
:104F70000E94261488E592E16AE00E94B013F801CD
:104F80006491C0EED2E007C088E592E10E94B013C0
:104F90002196FE0164916623B9F7ECE9F3E0649190
:104FA000EF0107C088E592E10E94B0132196FE014F
:104FB00064916623B9F788E592E16AE00E94B01334
:104FC000F8016491C0EED2E007C088E592E10E944A
:104FD000B0132196FE0164916623B9F74091B202A5
:104FE0005091B3026091B4027091B50282E993E0EE
:104FF0000E94D0346091B6027091B7028091B802DD
:105000009091B9020E942293AB01BC018FE893E01A
:105010000E94D0346091BA027091BB028091BC02B0
:105020009091BD020E942E93AB01BC018CE893E0ED
:105030000E94D03488E592E16EE171E00E9426146E
:1050400088E592E16AE00E94B013F8016491C0EE35
:10505000D2E007C088E592E10E94B0132196FE01DC
:1050600064916623B9F7E9E7F3E06491EF0107C0C3
:1050700088E592E10E94B0132196FE0164916623B7
:10508000B9F788E592E16AE00E94B013F8016491F3
:10509000C0EED2E007C088E592E10E94B0132196ED
:1050A000FE0164916623B9F74091C7065091C80686
:1050B0006091C9067091CA0680E793E00E94D034DF
:1050C0004091CB065091CC066091CD067091CE06F2
:1050D0008DE693E00E94D0344091CF065091D006E7
:1050E0006091D1067091D2068AE693E00E94D03496
:1050F00088E592E16EE171E00E94261488E592E174
:105100006AE00E94B013F8016491C0EED2E007C0DB
:1051100088E592E10E94B0132196FE016491662316
:10512000B9F7E7E5F3E06491EF0107C088E592E1A4
:105130000E94B0132196FE0164916623B9F788E5B9
:1051400092E16AE00E94B013F8016491C0EED2E0EF
:1051500007C088E592E10E94B0132196FE01649198
:105160006623B9F7409158025091590260915A0252
:1051700070915B028EE493E00E94D03440915C0217
:1051800050915D0260915E0270915F028BE493E04A
:105190000E94D0344091600250916102609162029D
:1051A0007091630288E493E00E94D03488E592E134
:1051B0006EE171E00E94261488E592E16AE00E94A7
:1051C000B013F8016491C0EED2E007C088E592E127
:1051D0000E94B0132196FE0164916623B9F7E1E3C2
:1051E000F3E06491EF0107C088E592E10E94B013FB
:1051F0002196FE0164916623B9F788E592E16AE0A1
:105200000E94B013F8016491C0EED2E007C088E5B7
:1052100092E10E94B0132196FE0164916623B9F7D2
:10522000409164025091650260916602709167023C
:1052300088E293E00E94D034409168025091690264
:1052400060916A0270916B0285E293E00E94D03413
:1052500040916C0250916D0260916E0270916F02EC
:1052600082E293E00E94D03488E592E16EE171E041
:105270000E94261488E592E16AE00E94B013DF9153
:10528000CF911F910F9108950F931F93DF93CF93A9
:10529000CDB7DEB72A970FB6F894DEBF0FBECDBFED
:1052A00080911A0190911B01A0911C01B0911D01E8
:1052B0008F839887A987BA87FE01339604E610E0AA
:1052C000F999FECF12BD01BDF89A80B580830F5FBA
:1052D0001F4F0836110511F03196F2CFCE01079617
:1052E000BE016D5F7F4F43E050E00E9400110097C8
:1052F00009F017C2E2EBF8E0F999FECF12BD01BD4B
:10530000F89A80B580830F5F1F4F0837110511F0A1
:105310003196F2CFE2EAF8E0F999FECF12BD01BD75
:10532000F89A80B580830F5F1F4F0838110511F080
:105330003196F2CFE2ECF8E0F999FECF12BD01BD53
:10534000F89A80B580830F5F1F4F0839110511F05F
:105350003196F2CF0E94E164E6EDF8E0F999FECFD4
:1053600012BD01BDF89A80B580830F5F1F4F0C39C5
:10537000110511F03196F2CFEAEDF8E0F999FECF80
:1053800012BD01BDF89A80B580830F5F1F4F003AB0
:10539000110511F03196F2CFE2EDF8E0F999FECF68
:1053A00012BD01BDF89A80B580830F5F1F4F043A8C
:1053B000110511F03196F2CFEAEEF8E0F999FECF3F
:1053C00012BD01BDF89A80B580830F5F1F4F083A68
:1053D000110511F03196F2CFEEE9F8E0F999FECF20
:1053E00012BD01BDF89A80B580830F5F1F4F0C3A44
:1053F000110511F03196F2CFEEEDF8E0F999FECFFC
:1054000012BD01BDF89A80B580830F5F1F4F003B2E
:10541000110511F03196F2CFE2EEF8E0F999FECFE6
:1054200012BD01BDF89A80B580830F5F1F4F043B0A
:10543000110511F03196F2CFE6EEF8E0F999FECFC2
:1054400012BD01BDF89A80B580830F5F1F4F083BE6
:10545000110511F03196F2CFE7E8F6E0F999FECFA9
:1054600012BD01BDF89A80B580830F5F1F4F043CC9
:10547000110511F03196F2CFE3E3F1E1F999FECF96
:1054800012BD01BDF89A80B580830F5F1F4F063CA7
:10549000110511F03196F2CFE5E3F1E1F999FECF74
:1054A00012BD01BDF89A80B580830F5F1F4F083C85
:1054B000110511F03196F2CFE7E3F1E1F999FECF52
:1054C00012BD01BDF89A80B580830F5F1F4F0A3C63
:1054D000110511F03196F2CFE9E3F1E1F999FECF30
:1054E00012BD01BDF89A80B580830F5F1F4F0C3C41
:1054F000110511F03196F2CFEBE3F1E1F999FECF0E
:1055000012BD01BDF89A80B580830F5F1F4F0E3C1E
:10551000110511F03196F2CFEDE3F1E1F999FECFEB
:1055200012BD01BDF89A80B580830F5F1F4F003D0B
:10553000110511F03196F2CFE4E6F2E0F999FECFD1
:1055400012BD01BDF89A80B580830F5F1F4F043DE7
:10555000110511F03196F2CFE8E6F2E0F999FECFAD
:1055600012BD01BDF89A80B580830F5F1F4F083DC3
:10557000110511F03196F2CFECE6F2E0F999FECF89
:1055800012BD01BDF89A80B580830F5F1F4F0C3D9F
:10559000110511F03196F2CFE2EBF2E0F999FECF6E
:1055A00012BD01BDF89A80B580830F5F1F4F003E8A
:1055B000110511F03196F2CFE6EBF2E0F999FECF4A
:1055C00012BD01BDF89A80B580830F5F1F4F043E66
:1055D000110511F03196F2CFEAEBF2E0F999FECF26
:1055E00012BD01BDF89A80B580830F5F1F4F083E42
:1055F000110511F03196F2CFFE013196F999FECFE7
:1056000012BD01BDF89A80B580830F5F1F4F0A3E1F
:10561000110599F7E7ECF6E0F999FECF12BD01BD4F
:10562000F89A80B580830F5F1F4F0E3E110511F071
:105630003196F2CFE8E5F2E0F999FECF12BD01BD57
:10564000F89A80B580830F5F1F4F023F110511F05C
:105650003196F2CFEBECF6E0F999FECF12BD01BD29
:10566000F89A80B580830F5F1F4F063F110511F038
:105670003196F2CFECE5F2E0F999FECF12BD01BD13
:10568000F89A80B580830F5F1F4F0A3F110511F014
:105690003196F2CFEFECF6E0F999FECF12BD01BDE5
:1056A000F89A80B580830F5F1F4F0E3F110511F0F0
:1056B0003196F2CFE0E6F2E0F999FECF12BD01BDDE
:1056C000F89A80B5808381E00130180721F00F5FE0
:1056D0001F4F3196F1CF0E941892E0EEF2E06491F4
:1056E0008F0108C088E592E10E94B0130F5F1F4F41
:1056F000F80164916623B1F7E8E0F3E064918F016B
:1057000008C088E592E10E94B0130F5F1F4FF801B7
:1057100064916623B1F788E592E16AE00E94B013D4
:1057200002C00E944223BBD92A960FB6F894DEBF6E
:105730000FBECDBFCF91DF911F910F910895CF93F1
:10574000DF930FB6F8948091501290915112A0916E
:105750005212B09153120FBE8093DC069093DD0677
:10576000A093DE06B093DF06E0910507F0910607EF
:10577000E95FF84F8081882399F4E9E1F6E06491CC
:10578000EF0107C088E592E10E94B0132196FE0167
:1057900064916623B9F788E592E16AE00E94B0134C
:1057A000DF91CF910895EF92FF920F931F93CF93C4
:1057B000DF93EC01E0909306F0909406009195063B
:1057C00010919606688179818A819B81A801970151
:1057D0000E9483E5882324F4E882F9820A831B83EC
:1057E000E0909706F09098060091990610919A061D
:1057F0006C817D818E819F81A80197010E9483E544
:10580000882324F4EC82FD820E831F83E0909B06A4
:10581000F0909C0600919D0610919E066885798502
:105820008A859B85A80197010E9483E5882324F43B
:10583000E886F9860A871B87E0904A02F0904B02BF
:1058400000914C0210914D02688179818A819B817F
:10585000A80197010E9491E7181624F4E882F982C2
:105860000A831B83E0904E02F0904F020091500299
:10587000109151026C817D818E819F81A8019701D9
:105880000E9491E7181624F4EC82FD820E831F8398
:10589000E0905202F0905302009154021091550290
:1058A000688579858A859B85A80197010E9491E783
:1058B000181624F4E886F9860A871B87DF91CF91B2
:1058C0001F910F91FF90EF9008958091C506089564
:1058D0000F931F93CF93DF938130910549F46F5F4E
:1058E0007F4F09F046C080EF93E00E94B41F41C093
:1058F000892B09F03EC06F5F7F4FD9F58FE693E0AB
:105900009093AF058093AE058091B405882321F074
:1059100081EB95E00E94CB7BCBE6D5E00FE613E070
:1059200005C06E9784E0CF33D80751F01983088300
:105930008E818823B1F3CE0103960E94CB7BF1CFF9
:105940008FE693E0998388838E81882321F0CE01AE
:1059500003960E94CB7B8FE693E090932004809384
:105960001F0480912504882321F082E294E00E94A4
:10597000CB7BDF91CF911F910F91089580E090E054
:105980006FEF7FEFA5CF81E090E06FEF7FEFA0CFCB
:10599000EF92FF920F931F93CF93DF93EC017A0165
:1059A0008B01FC01649107C088E592E10E94B0136D
:1059B0002196FE0164916623B9F788E592E1B8016A
:1059C000A70120E00E9481E1DF91CF911F910F910B
:1059D000FF90EF900895CF93DF930E94FF92809104
:1059E000C506882309F038C081E08093C506809100
:1059F000D4069091D506A091D606B091D706809393
:105A0000D8069093D906A093DA06B093DB06EAE6AF
:105A1000F5E06491EF0107C088E592E10E94B013C0
:105A20002196FE0164916623B9F7EBE7F5E06491F6
:105A3000EF0107C088E592E10E94B0132196FE01B4
:105A400064916623B9F788E592E16AE00E94B01399
:105A500081E795E00E94CBCBDF91CF910895CF9362
:105A6000DF93F8940E94FF92779A10929F06769A9D
:105A70001092A006479A1092A106439A8C9A8D9A8A
:105A8000EAE6F5E06491EF0107C088E592E10E9443
:105A9000B0132196FE0164916623B9F7EAEFF5E0B1
:105AA0006491EF0107C088E592E10E94B01321964E
:105AB000FE0164916623B9F788E592E16AE00E94ED
:105AC000B01381EF95E00E94DACBFFCFEF92FF9207
:105AD0000F931F930FB6F89480915012909151122A
